:100000000C942A000C9447000C9447000C94470071
:100010000C9447000C9447000C9447000C94470044
:100020000C9447000C9447000C9447000C94470034
:100030000C9447000C9447000C9447000C94470024
:100040000C9447000C9447000C9447000C94470014
:100050000C94470011241FBECFE5D8E0DEBFCDBF12
:1000600010E0A0E6B0E0E6ECF3E002C005900D92EF
:10007000AE37B107D9F720E0AEE7B0E001C01D927E
:10008000AF37B207E1F70E9449010C94E1010C94EB
:10009000000011B810B884E086BF089584EA86BFD6
:1000A00006B607FEFDCF81B1887F089583B984E845
:1000B00086BF06B607FEFDCF81B1887F089584E92B
:1000C00086BF83E08A95F1F700000895CF93C82F8B
:1000D0000E944E008C2F880F0E945600C82F0E944D
:1000E0005F0081E0C83109F080E0CF910895CF939F
:1000F000C82F0E944E0080917E00880F0E945600FB
:100100008C2F0E945600CF910C945F00CF93C82F84
:100110008C600E94770000008C2F837F88600E9493
:10012000770081E28A95F1F70000CF9108958295DA
:10013000807F6111816088600C948600CF93C82F06
:1001400060E082958F700E94970060E08C2F8F7026
:100150000E94970083EF91E00197F1F700C0000043
:10016000CF910895CF93C82F61E082958F700E9440
:10017000970061E08C2F8F700E94970080E18A9534
:10018000F1F700C0CF91089583ED90E30197F1F767
:1001900000C0000088E30E94860081EE94E0019791
:1001A000F1F700C0000088E30E94860092E39A9570
:1001B000F1F788E30E94860082E38A95F1F788E2EE
:1001C0000E94860092E39A95F1F788E20E949E00D1
:1001D0008CE00E949E0086E00E949E0081E00E94CA
:1001E0009E0083EF91E00197F1F700C000000895B1
:1001F0008111605C862F80680C949E00CF93DF9302
:10020000EC018991811103C0DF91CF9108950E9483
:10021000B200F7CF80E487B987E886B9089597B12F
:100220008F70907F892B87B9369A3699FECF84B12B
:1002300095B10895CF93DF93EB019C01A2E0BDE05F
:100240000E94D2012FEF33E040E050E00E94B00165
:10025000CA01B90128EE33E040E050E00E94B0014D
:10026000205D28832EE229832AE030E040E050E040
:100270000E94B001C9016AE070E00E949C01605DCB
:100280006A83805D8B8386E58C831D82DF91CF91AD
:10029000089500D000D000D0CDB7DEB7889A9098EE
:1002A0000E94490010E2812F0E9466008115A9F08A
:1002B00010937E00909A80917E00811112C091E08F
:1002C00082B3892782BB2FE53AEE80E0215030408F
:1002D0008040E1F700C00000F3CF1F5F183219F72C
:1002E000EACF0E94C4000E940A0180E80E949E009A
:1002F00080E690E00E94FE0080E00E940F01BE01B7
:100300006F5F7F4F0E941A0180EC0E949E008DE675
:1003100090E00E94FE0080EC0E949E00CE010196BB
:100320000E94FE009FE52AEE30E0915020403040D0
:10033000E1F700C00000E0CFAA1BBB1B51E107C0E2
:10034000AA1FBB1FA617B70710F0A61BB70B881F65
:10035000991F5A95A9F780959095BC01CD010895F4
:10036000A1E21A2EAA1BBB1BFD010DC0AA1FBB1FB9
:10037000EE1FFF1FA217B307E407F50720F0A21B2B
:10038000B30BE40BF50B661F771F881F991F1A9498
:1003900069F760957095809590959B01AC01BD01C2
:1003A000CF010895A29FB001B39FC001A39F700D1C
:1003B000811D1124911DB29F700D811D1124911D6D
:0603C0000895F894FFCF40
:1003C600506F7420566F6C746167653A0020202068
:0E03D600202020202020202020202020200079
:00000001FF
