:100000000C942A000C9441000C9472000C943C0057
:100010000C943C000C943C000C943C000C943C0070
:100020000C943C000C943C000C943C000C943C0060
:100030000C943C000C943C000C943C000C943C0050
:100040000C943C000C943C000C943C000C943C0040
:100050000C943C0011241FBECFE5D8E0DEBFCDBF1D
:1000600020E0A0E6B0E001C01D92A436B207E1F79F
:100070000E949C000C94B9000C940000B89AC0989F
:1000800008951F921FB61F9211242F938F939F9351
:1000900080916000813011F5809162009091630041
:1000A000181619064CF48091620090916300019734
:1000B0009093630080936200109260002FE58AEEB7
:1000C00090E0215080409040E1F700C000009F91F7
:1000D0008F912F911F901FBE1F90189581E08093E4
:1000E0006100ECCF1F921FB61F9211242F938F93A4
:1000F0009F93809161008130D9F48091620090914A
:1001000063000196909363008093620010926100F7
:100110002FE58AEE90E0215080409040E1F700C04A
:1001200000009F918F912F911F901FBE1F901895D7
:1001300081E080936000ECCF0E943E0085B78A602A
:1001400085BF85B78A7F85BF8BB7806C8BBF78945E
:1001500080916200909163001816190644F4C09AC9
:1001600087EA91E60197F1F700C00000F1CFC0984F
:06017000F7CFF894FFCF69
:00000001FF
