:100000000C942A000C9447000C9447000C94470071
:100010000C9447000C9447000C9447000C94470044
:100020000C9447000C9447000C9447000C94470034
:100030000C9447000C9447000C9447000C94470024
:100040000C9447000C9447000C9447000C94470014
:100050000C94470011241FBECFE5D8E0DEBFCDBF12
:1000600010E0A0E6B0E0E6E7F2E002C005900D92F5
:10007000AE37B107D9F720E0AEE7B0E001C01D927E
:10008000AF37B207E1F70E940A010C9439010C94D2
:10009000000011B810B884E086BF089584EA86BFD6
:1000A00006B607FEFDCF81B1887F089583B984E845
:1000B00086BF06B607FEFDCF81B1887F089584E92B
:1000C00086BF83E08A95F1F700000895CF93C82F8B
:1000D0000E944E008C2F880F0E945600C82F0E944D
:1000E0005F0081E0C83109F080E0CF910895CF939F
:1000F000C82F0E944E0080917E00880F0E945600FB
:100100008C2F0E945600CF910C945F00CF93C82F84
:100110008C600E94770000008C2F837F88600E9493
:10012000770081E28A95F1F70000CF9108958295DA
:10013000807F6111816088600C948600CF93C82F06
:1001400060E082958F700E94970060E08C2F8F7026
:100150000E94970083EF91E00197F1F700C0000043
:10016000CF910895CF93C82F61E082958F700E9440
:10017000970061E08C2F8F700E94970080E18A9534
:10018000F1F700C0CF91089583ED90E30197F1F767
:1001900000C0000088E30E94860081EE94E0019791
:1001A000F1F700C0000088E30E94860092E39A9570
:1001B000F1F788E30E94860082E38A95F1F788E2EE
:1001C0000E94860092E39A95F1F788E20E949E00D1
:1001D0008CE00E949E0086E00E949E0081E00E94CA
:1001E0009E0083EF91E00197F1F700C000000895B1
:1001F0008111605C862F80680C949E00CF93DF9302
:10020000EC018991811103C0DF91CF9108950E9483
:10021000B200F7CF889A90980E944900C0E28C2FD4
:100220000E9466008115A1F0C0937E00909A0E9402
:10023000C40080E80E949E0080E690E00E94FE00DC
:1002400080EC0E949E0080E790E00E94FE00FFCFBD
:10025000CF5FC83221F791E082B3892782BB2FE5B7
:100260003AEE80E0215030408040E1F700C00000CD
:06027000F3CFF894FFCF6C
:1002760048454C4C4F20204D4F53414444454B007C
:0E02860049324320574F524B494E472100004A
:00000001FF
