:100000000C942A000C9449000C947A000C9447003C
:100010000C9447000C9447000C9447000C94470044
:100020000C9447000C9447000C9447000C94470034
:100030000C9447000C94FC000C9447000C9447006F
:100040000C9447000C9447000C9447000C94470014
:100050000C94470011241FBECFE5D8E0DEBFCDBF12
:1000600011E0A0E6B0E0E0E2FBE002C005900D92F6
:10007000AA34B107D9F721E0AAE4B1E001C01D928A
:10008000A635B207E1F70E94A0030C9473050C9407
:1000900000001F921FB61F9211248F939F9380918F
:1000A0004C01811103C081E0809351018091550181
:1000B000811109C081E0809355019F918F911F901C
:1000C0001FBE1F901895809155018230B1F7809125
:1000D000520190915301181619064CF48091520167
:1000E0009091530101979093530180935201109284
:1000F0005501E3CF1F921FB61F9211248F939F9338
:1001000080914C01811103C081E080935101809165
:100110005501811109C082E0809355019F918F9113
:100120001F901FBE1F901895809155018130B1F727
:1001300080915201909153010196909353018093C5
:10014000520110925501EACF82E08BB910BC8CE0CD
:1001500089B988E98AB986E880BD08955D9BFECF9C
:100160008CB90895CF93DF93EC018991811103C07D
:10017000DF91CF9108950E94AE00F7CF1F93CF93E8
:10018000DF9300D000D000D0CDB7DEB79C0110E0E7
:10019000EAE0F0E0892B61F480E30F900F900F907C
:1001A0000F900F900F90DF91CF911F910C94AE00A4
:1001B000C901BF010E944505DE011196A10FB11DC5
:1001C0001F5F805D8C93C9019B010A9788F711110D
:1001D0000AC00F900F900F900F900F900F90DF912B
:1001E000CF911F9108951150FE013196E10FF11D3D
:1001F00080810E94AE00EBCF1F920F920FB60F923C
:1002000011242F938F939F93EF93FF938CB18D3095
:10021000C1F18A30B1F18032A1F120915401211550
:10022000F9F01092540190ED980F9A30C8F481E0E3
:10023000911101C080E0223459F421E02093500153
:100240009093610080934F0181E080934B0119C02E
:1002500021E020934E019093600080934D01F4CFF4
:100260008A3558F48F3368F0E1ECE80FEB3148F44D
:10027000F0E0EB58FA4F0C946D05863691F18C3610
:10028000D1F0FF91EF919F918F912F910F900FBE21
:100290000F901F90189580935401F3CF81E08093C5
:1002A000500180934F01809161008111CDCF89E091
:1002B00080936100C9CF81E08093500110924F017B
:1002C000C3CF10925001C0CF81E080934E01809344
:1002D0004D01809160008111B7CF89E0809360006B
:1002E000B3CF81E080934E0110924D01ADCF1092BB
:1002F000500110924E01A8CF81E080934C01A4CF11
:1003000010924C01A1CF80914C0181119DCF81E0D1
:100310008093510199CFCF93DF93D82FC62F8EE6CC
:1003200090E00E94B20080915001811105C089E6E1
:1003300090E00E94B2000DC080914F018115B1F094
:1003400085E790E00E94B2008091610090E00E94F9
:10035000BE008EE790E00E94B20080914E018111B4
:1003600008C089E690E00E94B20010C08AE790E0E1
:10037000E0CF80914D018115A9F186E890E00E94BF
:10038000B2008091600090E00E94BE008BE890E097
:100390000E94B20080914C01811539F182E690E013
:1003A0000E94B20084E990E00E94B2008091520164
:1003B000909153010E94BE008CE990E00E94B2002F
:1003C0008D2F90E00E94BE0082EA90E00E94B20071
:1003D0008C2F90E00E94BE0087EA90E0DF91CF91E1
:1003E0000C94B2008AE790E0BECF89E690E0D8CFC7
:1003F00080E487B987E886B9089597B18F70907FB8
:10040000892B87B9369A3699FECF84B195B1089574
:100410008D9A82E88FBD83EC99E097BD86BD8DE70C
:1004200090E09BBD8ABD8AE18EBD08959BBD8ABDCB
:10043000089511B810B884E086BF089584EA86BF95
:1004400006B607FEFDCF81B1887F089583B984E8A1
:1004500086BF06B607FEFDCF81B1887F089584E987
:1004600086BF83E08A95F1F700000895CF93C82FE7
:100470000E941E028C2F880F0E942602C82F0E9405
:100480002F0281E0C83109F080E0CF910895CF9329
:10049000C82F0E941E0280914A01880F0E942602E6
:1004A0008C2F0E942602CF910C942F02CF93C82F3D
:1004B0008C600E94470200008C2F837F88600E941E
:1004C000470281E28A95F1F70000CF910895829565
:1004D000807F6111816088600C945602CF93C82F91
:1004E00060E082958F700E94670260E08C2F8F70B1
:1004F0000E94670283EF91E00197F1F700C00000CE
:10050000CF910895CF93C82F61E082958F700E949C
:10051000670261E08C2F8F700E94670280E18A95EC
:10052000F1F700C0CF91089583ED90E30197F1F7C3
:1005300000C0000088E30E94560281EE94E001971B
:10054000F1F700C0000088E30E94560292E39A95FA
:10055000F1F788E30E94560282E38A95F1F788E278
:100560000E94560292E39A95F1F788E20E946E0289
:100570008CE00E946E0286E00E946E0281E00E9482
:100580006E0283EF91E00197F1F700C0000008953B
:100590008111605C862F80680C946E02CF93DF938C
:1005A000EC018991811103C0DF91CF9108950E94E0
:1005B0008202F7CFEF92FF920F931F93CF93DF93B7
:1005C000CDB7DEB72A970FB6F894DEBF0FBECDBF0A
:1005D0000097F1F09E012F5F3F4F7901F90100E094
:1005E00010E02AE030E0181619060CF10E0D1F1D60
:1005F0000E151F0529F52A960FB6F894DEBF0FBE1B
:10060000CDBFDF91CF911F910F91FF90EF90089593
:1006100080E32A960FB6F894DEBF0FBECDBFDF9100
:10062000CF911F910F91FF90EF900C948202B9012E
:100630000E9459050F5F1F4F805D8193CB01D3CF7F
:10064000F80182918F010E948202D2CF8E9A9698F1
:1006500087E893E10197F1F700C00000969A0895AA
:100660008E9885E690E086990AC085E690E0869BA4
:100670000BC085E690E086990BC081E008950000EC
:10068000019789F780E0089500000197D9F3EFCF33
:1006900000000197B9F3EFCF98E080E025E630E065
:1006A00004C000002150304099F0869BFACF2AE028
:1006B0002A95F1F7880F8699816025E630E0869BC0
:1006C00004C0000021503040D1F79A9539F70895C1
:1006D00080E00895BF92CF92DF92EF92FF920F9346
:1006E0001F93CF93DF937C018B010E9426030E940E
:1006F0003003D82F81110CC0D0E08D2FDF91CF9126
:100700001F910F91FF90EF90DF90CF90BF900895D1
:100710000E944C03C82E0E944C03C82F0E944C0319
:10072000D82E0E944C03B82E0E944C03CC0DCD0D48
:10073000CB0DC813E1CFF701C082F801D082DDCF25
:1007400000D0CDB7DEB71A82198280E884BF84BF9B
:10075000BB9A8F9A8C98949AB89AC0988AE683BF6D
:100760001CBE85BD13BC0E94080285B78A6085BF88
:1007700085B78A7F85BF8BB7806C8BBF0E94A40032
:1007800078940E9419020E94F80110E2812F0E94C1
:100790003602F82E811509F46CC010934A010E94AC
:1007A000940283EE90E00E94B200612CE12C712C47
:1007B00000E010E0C12CD12C44244A94E0EF2E2E0E
:1007C000312CFDE78F2E912C80915001811509F479
:1007D00055C080914F01811509F461C0809161007D
:1007E000811509F45CC080916100489EC00111240C
:1007F00069E070E00E9445056CBF80914E01811553
:1008000009F44FC080914D01811509F488C0809191
:100810006000811509F483C08091600098E1899F90
:10082000802D11248C5D83BD80915501811179C08B
:10083000612C81E00E94FD015C0180B3982F9071D2
:10084000592E84FF75C021E9A21621E0B20608F0F6
:100850006FC0C09880914C018111DEC0E0905101C1
:10086000E11409F4E0C03BBC2ABC10925101E12C18
:1008700070C01F5F183209F089CFFFCF80915201FD
:10088000909153011816190654F480E00E94FD015E
:10089000969587959695879580958CBFAECF1CBE13
:1008A000ACCF809152019091530118161906BCF5F6
:1008B00089814FEF8A3138F444EB873120F444E6E4
:1008C000853108F44CE38A812FEF8D3320F426E93B
:1008D000833308F42CE380915201909153015FEF30
:1008E000049744F4809152019091530156E9029784
:1008F0000CF456E430E0C901880F991F820F931F52
:1009000025E0249F800D911D1124850F911D850FD9
:10091000911D6AE070E00E94590563BD85CF13BC4C
:1009200083CF63943FE1631284CF1092550180CF4F
:10093000C09AE11009C02BEA30E0511411F02AEB03
:1009400030E0C9010E94B2003BBC2ABC10925101A8
:10095000EF2C7F2C00E010E034E1C316D104C1F588
:10096000BE016F5F7F4FCE0102960E946A03811520
:1009700009F465C080E80E946E028FE990E00E9451
:10098000CE0289819AE0D92E6D2D0E943905C92E9B
:10099000805D0E94820280E38C0D0E9482028FEDB6
:1009A0000E94820282EA90E00E94CE028A816D2D2E
:1009B0000E943905D92E805D0E94820280E38D0D50
:1009C0000E94820289E091E00E94CE02C12CD12CCB
:1009D00080EC0E946E028FE191E0511439F081E9C0
:1009E000A81681E0B80688F180E391E00E94CE026B
:1009F00080914B01811531F010924B016A81898100
:100A00000E948B0187EA91E60197F1F700C0000090
:100A10009FEFC91AD90AD8CE9BBC8ABC109251014B
:100A2000E12C712C97CF711409F496CF0F5F1F4FF3
:100A30000531110508F490CF9BBC8ABCF2CF80E849
:100A40000E946E028EE091E0BFCF81E491E00E94AF
:100A5000CE0280915201909153010E94DA0280915E
:100A60004C012DEC30E0811102C028ED30E0C901CD
:100A7000BDCF992778E0880F991F961708F0961B2D
:100A8000881F7A95C9F780950895AA1BBB1B51E171
:100A900007C0AA1FBB1FA617B70710F0A61BB70BEE
:100AA000881F991F5A95A9F780959095BC01CD0193
:100AB000089597FB072E16F4009407D077FD09D010
:100AC0000E94450507FC05D03EF4909581959F4F07
:100AD0000895709561957F4F0895EE0FFF1F059063
:100AE000F491E02D0994F894FFCF2401410177019E
:100AF0004B0141017C01410164014101410141017E
:100B0000410141014E014101410183014101410186
:100B100041014B0141018001410141016101790124
:100B200009094C4F434B4544004155544F004C6913
:100B30006768743A004F4E2042004F464600207CC2
:100B40002046616E3A004F4E205300207C20446FB7
:100B50006F723A00207C20436E743A00207C20544F
:100B60003A004320483A00250D0A00414C455254B2
:100B70003A2046495245210D0A00414C4552543A0B
:100B800020474153204C45414B210D0A00204C4F3A
:100B9000434B202020202000202020202020202027
:100BA000202000536D61727420526F6F6D2052656A
:100BB0006164792E2053656E64203F20666F722039
:100BC0007374617475730D0A002520202000444859
:100BD00054204572726F7220202020202020002196
:100BE00021204649524520414C45525420212100A4
:100BF000212120474153204C45414B2021212020D9
:0A0C000000436F756E743A20000087
:00000001FF
