:100000000C942A000C9447000C9447000C94470071
:100010000C9447000C9447000C9447000C94470044
:100020000C9447000C9447000C9447000C94470034
:100030000C9447000C9447000C9447000C94470024
:100040000C9447000C9447000C9447000C94470014
:100050000C94470011241FBECFE5D8E0DEBFCDBF12
:1000600010E0A0E6B0E0EEE0F4E002C005900D92F2
:10007000A43BB107D9F720E0A4EBB0E001C01D928A
:10008000A53BB207E1F70E9484010C9405020C9491
:10009000000011B810B884E086BF089584EA86BFD6
:1000A00006B607FEFDCF81B1887F089583B984E845
:1000B00086BF06B607FEFDCF81B1887F089584E92B
:1000C00086BF83E08A95F1F700000895CF93C82F8B
:1000D0000E944E008C2F880F0E945600C82F0E944D
:1000E0005F0081E0C83109F080E0CF910895CF939F
:1000F000C82F0E944E008091B400880F0E945600C5
:100100008C2F0E945600CF910C945F00CF93C82F84
:100110008C600E94770000008C2F837F88600E9493
:10012000770081E28A95F1F70000CF9108958295DA
:10013000807F6111816088600C948600CF93C82F06
:1001400060E082958F700E94970060E08C2F8F7026
:100150000E94970083EF91E00197F1F700C0000043
:10016000CF910895CF93C82F61E082958F700E9440
:10017000970061E08C2F8F700E94970080E18A9534
:10018000F1F700C0CF91089583ED90E30197F1F767
:1001900000C0000088E30E94860081EE94E0019791
:1001A000F1F700C0000088E30E94860092E39A9570
:1001B000F1F788E30E94860082E38A95F1F788E2EE
:1001C0000E94860092E39A95F1F788E20E949E00D1
:1001D0008CE00E949E0086E00E949E0081E00E94CA
:1001E0009E0083EF91E00197F1F700C000000895B1
:1001F0008111605C862F80680C949E00CF93DF9302
:10020000EC018991811103C0DF91CF9108950E9483
:10021000B200F7CF8A9A929887E893E10197F1F7B5
:1002200000C00000929A08958A9885E690E082992D
:100230000AC085E690E0829B0BC085E690E082993B
:100240000BC081E008950000019789F780E00895D0
:1002500000000197D9F3EFCF00000197B9F3EFCF7A
:1002600098E080E025E630E004C0000021503040F6
:1002700099F0829BFACF2AE02A95F1F7880F8299AC
:10028000816025E630E0829B04C0000021503040B0
:10029000D1F79A9539F7089580E00895BF92CF92EB
:1002A000DF92EF92FF920F931F93CF93DF937C0126
:1002B0008B010E940A010E941401D82F81110CC0E9
:1002C000D0E08D2FDF91CF911F910F91FF90EF9094
:1002D000DF90CF90BF9008950E943001C82E0E94F9
:1002E0003001C82F0E943001D82E0E943001B82E54
:1002F0000E943001CC0DCD0DCB0DC813E1CFF7011D
:10030000C082F801D082DDCF00D0CDB7DEB780E863
:1003100084BF84BF0E94490010E2812F0E946600C2
:10032000811509F454C01093B4000E94C40080E801
:100330000E949E0080E690E00E94FE0080EC0E94F9
:100340009E008DE690E00E94FE001AE0BE016F5F05
:100350007F4FCE0102960E944E018115E9F180E89F
:100360000E949E0087E790E00E94FE008981612F35
:100370000E94F901092F805D0E94B20080E3800F86
:100380000E94B2008EE790E00E94FE0080EC0E9486
:100390009E0085E890E00E94FE008A81612F0E9405
:1003A000F901092F805D0E94B20080E3800F0E9456
:1003B000B2008BE890E00E94FE002FE78AE196E011
:1003C000215080409040E1F700C00000BFCF1F5F88
:1003D000183209F0A2CFFFCF80E80E949E0082E988
:1003E00090E00E94FE0080EC0E949E0083EA90E074
:1003F000E2CF992778E0880F991F961708F0961B8F
:0E040000881F7A95C9F780950895F894FFCF6C
:10040E0054656D70657261747572653A0048756DEC
:10041E0069646974793A0054656D703A200020431E
:10042E00202020200048756D3A2000202520202015
:10043E0020004448543131204552524F5220202042
:10044E00202000436865636B2073656E736F7220A6
:04045E00202020003A
:00000001FF
