:100000000C942A000C9449000C947C000C9447003A
:100010000C9447000C9447000C9447000C94470044
:100020000C9447000C9447000C9447000C94470034
:100030000C9447000C9400010C9447000C9447006A
:100040000C9447000C9447000C9447000C94470014
:100050000C94470011241FBECFE5D8E0DEBFCDBF12
:1000600011E0A0E6B0E0EEE3FBE002C005900D92E7
:10007000AA34B107D9F721E0AAE4B1E001C01D928A
:10008000A735B207E1F70E94A4030C9482050C94F3
:1000900000001F921FB61F9211248F939F9380918F
:1000A0004E01811103C081E08093530180914A0188
:1000B000811109C081E080934B019F918F911F9026
:1000C0001FBE1F90189580914A018115B1F3809150
:1000D000540190915501181619064CF48091540161
:1000E000909155010197909355018093540110927E
:1000F0004B0110924A01E1CF1F921FB61F921124AB
:100100008F939F9380914E01811103C081E0809372
:10011000530180914B01811109C081E080934A0114
:100120009F918F911F901FBE1F90189580914B013A
:100130008115B1F3809154019091550101969093EE
:1001400055018093540110924B0110924A01E8CF5F
:1001500082E08BB910BC8CE089B988E98AB986E85D
:1001600080BD08955D9BFECF8CB90895CF93DF933A
:10017000EC018991811103C0DF91CF9108950E9414
:10018000B200F7CF1F93CF93DF9300D000D000D001
:10019000CDB7DEB79C0110E0EAE0F0E0892B61F416
:1001A00080E30F900F900F900F900F900F90DF91C2
:1001B000CF911F910C94B200C901BF010E94540558
:1001C000DE011196A10FB11D1F5F805D8C93C901E7
:1001D0009B010A9788F711110AC00F900F900F909A
:1001E0000F900F900F90DF91CF911F9108951150B4
:1001F000FE013196E10FF11D80810E94B200EBCF2C
:100200001F920F920FB60F9211242F938F939F93EB
:10021000EF93FF938CB18D30C1F18A30B1F1803210
:10022000A1F1209156012115F9F01092560190ED9F
:10023000980F9A30C8F481E0911101C080E0223417
:1002400059F421E020935201909361008093510171
:1002500081E080934D0119C021E0209350019093DB
:10026000600080934F01F4CF8A3558F48F3368F0E3
:10027000E1ECE80FEB3148F4F0E0EC57FA4F0C9466
:100280007C05863691F18C36D1F0FF91EF919F91EC
:100290008F912F910F900FBE0F901F901895809304
:1002A0005601F3CF81E080935201809351018091F8
:1002B00061008111CDCF89E080936100C9CF81E0D9
:1002C0008093520110925101C3CF10925201C0CFBE
:1002D00081E08093500180934F01809160008111F3
:1002E000B7CF89E080936000B3CF81E08093500165
:1002F00010924F01ADCF1092520110925001A8CF31
:1003000081E080934E01A4CF10924E01A1CF809145
:100310004E0181119DCF81E08093530199CFCF93FE
:10032000DF93D82FC62F8EE690E00E94B600809112
:100330005201811105C089E690E00E94B6000DC00F
:10034000809151018115B1F085E790E00E94B600DF
:100350008091610090E00E94C2008EE790E00E94D0
:10036000B60080915001811108C089E690E00E949A
:10037000B60010C08AE790E0E0CF80914F01811570
:10038000A9F186E890E00E94B6008091600090E0BC
:100390000E94C2008BE890E00E94B60080914E015E
:1003A000811539F182E690E00E94B60084E990E080
:1003B0000E94B60080915401909155010E94C200A4
:1003C0008CE990E00E94B6008D2F90E00E94C20060
:1003D00082EA90E00E94B6008C2F90E00E94C2005A
:1003E00087EA90E0DF91CF910C94B6008AE790E025
:1003F000BECF89E690E0D8CF80E487B987E886B998
:10040000089597B18F70907F892B87B9369A369966
:10041000FECF84B195B108958D9A82E88FBD83ECAB
:1004200099E097BD86BD8DE790E09BBD8ABD8AE1CE
:100430008EBD08959BBD8ABD089511B810B884E0A3
:1004400086BF089584EA86BF06B607FEFDCF81B158
:10045000887F089583B984E886BF06B607FEFDCF7E
:1004600081B1887F089584E986BF83E08A95F1F79A
:1004700000000895CF93C82F0E9422028C2F880F6E
:100480000E942A02C82F0E94330281E0C83109F07D
:1004900080E0CF910895CF93C82F0E9422028091CF
:1004A0004C01880F0E942A028C2F0E942A02CF91B1
:1004B0000C943302CF93C82F8C600E944B02000033
:1004C0008C2F837F88600E944B0281E28A95F1F72E
:1004D0000000CF9108958295807F611181608860CE
:1004E0000C945A02CF93C82F60E082958F700E94BF
:1004F0006B0260E08C2F8F700E946B0283EF91E0A3
:100500000197F1F700C00000CF910895CF93C82F55
:1005100061E082958F700E946B0261E08C2F8F707A
:100520000E946B0280E18A95F1F700C0CF91089597
:1005300083ED90E30197F1F700C0000088E30E948B
:100540005A0281EE94E00197F1F700C0000088E3C1
:100550000E945A0292E39A95F1F788E30E945A02A8
:1005600082E38A95F1F788E20E945A0292E39A9513
:10057000F1F788E20E9472028CE00E94720286E02B
:100580000E94720281E00E94720283EF91E0019763
:10059000F1F700C0000008958111605C862F80682B
:1005A0000C947202CF93DF93EC018991811103C007
:1005B000DF91CF9108950E948602F7CFEF92FF92CC
:1005C0000F931F93CF93DF93CDB7DEB72A970FB664
:1005D000F894DEBF0FBECDBF0097F1F09E012F5FF4
:1005E0003F4F7901F90100E010E02AE030E01816F1
:1005F00019060CF10E0D1F1D0E151F0529F52A9663
:100600000FB6F894DEBF0FBECDBFDF91CF911F9123
:100610000F91FF90EF90089580E32A960FB6F8941B
:10062000DEBF0FBECDBFDF91CF911F910F91FF9025
:10063000EF900C948602B9010E9468050F5F1F4F6E
:10064000805D8193CB01D3CFF80182918F010E940D
:100650008602D2CF8E9A969887E893E10197F1F7B8
:1006600000C00000969A08958E9885E690E08699DD
:100670000AC085E690E0869B0BC085E690E08699EF
:100680000BC081E008950000019789F780E008958C
:1006900000000197D9F3EFCF00000197B9F3EFCF36
:1006A00098E080E025E630E004C0000021503040B2
:1006B00099F0869BFACF2AE02A95F1F7880F869960
:1006C000816025E630E0869B04C000002150304068
:1006D000D1F79A9539F7089580E00895BF92CF92A7
:1006E000DF92EF92FF920F931F93CF93DF937C01E2
:1006F0008B010E942A030E943403D82F81110CC061
:10070000D0E08D2FDF91CF911F910F91FF90EF904F
:10071000DF90CF90BF9008950E945003C82E0E9492
:100720005003C82F0E945003D82E0E945003B82EA9
:100730000E945003CC0DCD0DCB0DC813E1CFF701B6
:10074000C082F801D082DDCF00D0CDB7DEB71A82EB
:10075000198280E884BF84BFBB9A8F9A8C98949A40
:10076000B89AC0988AE683BF1CBE85BD13BC0E94A0
:100770000C0285B78A6085BF85B78A7F85BF8BB736
:10078000806C8BBF0E94A80078940E941D020E947A
:10079000FC0110E2812F0E943A02782E811509F4A3
:1007A00071C010934C010E94980283EE90E00E9469
:1007B000B600612C512C00E010E0C12CD12CE12CB2
:1007C000F12CE0EF2E2E312CFDE78F2E912C809115
:1007D0005201811509F45BC080915101811509F422
:1007E00067C080916100811509F462C08091610049
:1007F0002FEF289FC001112469E070E00E9454058A
:100800006CBF80915001811509F454C080914F0153
:10081000811509F48DC080916000811509F488C0AC
:100820008091600098E1899F802D11248C5D83BDAB
:1008300080914B0181117EC080914A0181117AC063
:10084000C12CD12C81E00E9401025C0180B3282FD1
:100850002071422E84FF7BC031E9A31631E0B3063C
:1008600008F075C0C09880914E018111E4C060907D
:100870005301611409F4E6C03BBC2ABC1092530139
:10088000612C76C01F5F183209F084CFFFCF8091B2
:100890005401909155011816190654F480E00E94F5
:1008A0000102969587959695879580958CBFA9CFDF
:1008B0001CBEA7CF809154019091550118161906BE
:1008C000BCF589814FEF813238F444EB8D3120F44F
:1008D00044E6893108F44CE38A812FEF873420F411
:1008E00026E9833308F42CE380915401909155015B
:1008F0005FEF049744F4809154019091550156E9BB
:1009000002970CF450E530E0C901880F991F820F5F
:10091000931F35E0349F800D911D1124850F911D8B
:10092000850F911D6AE070E00E94680563BD80CF6D
:1009300013BC7ECF8FEFC81AD80A9FE1C916D10425
:1009400009F080CF10924B0110924A0179CFC09AE2
:10095000611009C02BEA30E0411411F02AEB30E0BD
:10096000C9010E94B6003BBC2ABC10925301672CFF
:10097000572C00E010E034E1E316F104C1F5BE01AC
:100980006F5F7F4FCE0102960E946E03811509F4BE
:1009900065C080E80E9472028FE990E00E94D20256
:1009A00089819AE0F92E6F2D0E944805E92E805D1D
:1009B0000E94860280E38E0D0E9486028FED0E94C7
:1009C000860282EA90E00E94D2028A816F2D0E9404
:1009D0004805F92E805D0E94860280E38F0D0E94FB
:1009E000860289E091E00E94D202E12CF12C80EC99
:1009F0000E9472028FE191E0411439F081E9A8165A
:100A000081E0B80688F180E391E00E94D2028091F3
:100A10004D01811531F010924D016A8189810E944A
:100A20008F0187EA91E60197F1F700C000009FEF80
:100A3000E91AF90ACCCE9BBC8ABC10925301612CF6
:100A4000512C97CF511409F496CF0F5F1F4F0531EA
:100A5000110508F490CF9BBC8ABCF2CF80E80E94BD
:100A600072028EE091E0BFCF81E491E00E94D20259
:100A700080915401909155010E94DE0280914E01B7
:100A80002DEC30E0811102C028ED30E0C901BDCF6E
:100A9000992778E0880F991F961708F0961B881FF2
:100AA0007A95C9F780950895AA1BBB1B51E107C031
:100AB000AA1FBB1FA617B70710F0A61BB70B881FEE
:100AC000991F5A95A9F780959095BC01CD0108957D
:100AD00097FB072E16F4009407D077FD09D00E94EB
:100AE000540507FC05D03EF4909581959F4F0895DD
:100AF000709561957F4F0895EE0FFF1F0590F4915B
:100B0000E02D0994F894FFCF280145017B014F01A6
:100B10004501800145016801450145014501450147
:100B20004501520145014501870145014501450146
:0E0B30004F01450184014501450165017D012C
:100B3E0009094C4F434B4544004155544F004C69F5
:100B4E006768743A004F4E2042004F464600207CA4
:100B5E002046616E3A004F4E205300207C20446F99
:100B6E006F723A00207C20436E743A00207C205431
:100B7E003A004320483A00250D0A00414C45525494
:100B8E003A2046495245210D0A00414C4552543AED
:100B9E0020474153204C45414B210D0A00204C4F1C
:100BAE00434B202020202000202020202020202009
:100BBE00202000536D61727420526F6F6D2052654C
:100BCE006164792E2053656E64203F20666F72201B
:100BDE007374617475730D0A00252020200044483B
:100BEE0054204572726F7220202020202020002178
:100BFE0021204649524520414C4552542021210086
:100C0E00212120474153204C45414B2021212020BA
:0A0C1E0000436F756E743A20000069
:00000001FF
