:100000000C942A000C9449000C9475000C94470041
:100010000C9447000C9447000C9447000C94470044
:100020000C9447000C9447000C9447000C94470034
:100030000C9447000C9447000C9447000C94470024
:100040000C9447000C9447000C9447000C94470014
:100050000C94470011241FBECFE5D8E0DEBFCDBF12
:1000600010E0A0E6B0E0E8EFF5E002C005900D92E8
:10007000A638B107D9F720E0A6E8B0E001C01D928C
:10008000AD38B207E1F70E9421020C94FA020C94F9
:1000900000001F921FB61F9211248F939F9380918F
:1000A0008600811109C081E0809387009F918F9124
:1000B0001F901FBE1F901895809186008115B1F387
:1000C00080918B0090918C00181619064CF4809149
:1000D0008B0090918C00019790938C0080938B0003
:1000E0001092870010928600E1CF1F921FB61F92D8
:1000F00011248F939F9380918700811109C081E023
:10010000809386009F918F911F901FBE1F9018951E
:10011000809187008115B1F380918B0090918C00C4
:10012000019690938C0080938B0010928700109220
:100130008600E8CF11B810B884E086BF089584EA3D
:1001400086BF06B607FEFDCF81B1887F089583B9CB
:1001500084E886BF06B607FEFDCF81B1887F08958B
:1001600084E986BF83E08A95F1F700000895CF9374
:10017000C82F0E949F008C2F880F0E94A700C82FB5
:100180000E94B00081E0C83109F080E0CF9108956D
:10019000CF93C82F0E949F0080918800880F0E94F3
:1001A000A7008C2F0E94A700CF910C94B000CF9392
:1001B000C82F8C600E94C80000008C2F837F88604D
:1001C0000E94C80081E28A95F1F70000CF9108955E
:1001D0008295807F6111816088600C94D700CF93F5
:1001E000C82F60E082958F700E94E80060E08C2F3D
:1001F0008F700E94E80083EF91E00197F1F700C053
:100200000000CF910895CF93C82F61E082958F7041
:100210000E94E80061E08C2F8F700E94E80080E16E
:100220008A95F1F700C0CF91089583ED90E301978F
:10023000F1F700C0000088E30E94D70081EE94E04F
:100240000197F1F700C0000088E30E94D70092E315
:100250009A95F1F788E30E94D70082E38A95F1F737
:1002600088E20E94D70092E39A95F1F788E20E9413
:10027000EF008CE00E94EF0086E00E94EF0081E03A
:100280000E94EF0083EF91E00197F1F700C00000BA
:1002900008958111605C862F80680C94EF00CF93E5
:1002A000DF93EC018991811103C0DF91CF91089513
:1002B0000E940301F7CFEF92FF920F931F93CF930A
:1002C000DF93CDB7DEB72A970FB6F894DEBF0FBE27
:1002D000CDBF0097F1F09E012F5F3F4F7901F901EB
:1002E00000E010E02AE030E0181619060CF10E0DBF
:1002F0001F1D0E151F0529F52A960FB6F894DEBFAF
:100300000FBECDBFDF91CF911F910F91FF90EF9066
:10031000089580E32A960FB6F894DEBF0FBECDBFD6
:10032000DF91CF911F910F91FF90EF900C940301FB
:10033000B9010E94D2020F5F1F4F805D8193CB01F4
:10034000D3CFF80182918F010E940301D2CF8E9A00
:10035000969887E893E10197F1F700C00000969A1C
:1003600008958E9885E690E086990AC085E690E02B
:10037000869B0BC085E690E086990BC081E00895CE
:100380000000019789F780E0089500000197D9F3F4
:10039000EFCF00000197B9F3EFCF98E080E025E6BA
:1003A00030E004C000002150304099F0869BFACF25
:1003B0002AE02A95F1F7880F8699816025E630E0DA
:1003C000869B04C0000021503040D1F79A9539F740
:1003D000089580E00895BF92CF92DF92EF92FF924E
:1003E0000F931F93CF93DF937C018B010E94A70192
:1003F0000E94B101D82F81110CC0D0E08D2FDF9168
:10040000CF911F910F91FF90EF90DF90CF90BF9011
:1004100008950E94CD01C82E0E94CD01C82F0E94D0
:10042000CD01D82E0E94CD01B82E0E94CD01CC0D59
:10043000CD0DCB0DC813E1CFF701C082F801D082FA
:10044000DDCF00D0CDB7DEB71A82198280E884BF35
:1004500084BFB89AC09885B78A6085BF85B78A7F00
:1004600085BF8BB7806C8BBF78940E949A0010E296
:10047000812F0E94B700811509F46EC01093880087
:100480000E941501E12CF12C00E010E080918B001E
:1004900090918C00181619060CF063C0C09A8091D8
:1004A0008700811160C08091860081115CC0E12CC1
:1004B000F12C04311105B1F5BE016F5F7F4FCE0104
:1004C00002960E94EB01811509F45AC080E80E944F
:1004D000EF0080E690E00E944F0189816AE00E946F
:1004E000C602192F805D0E94030180E3810F0E94E4
:1004F00003018FED0E94030183E690E00E944F010B
:100500008A816AE00E94C602192F805D0E94030161
:1005100080E3810F0E94030188E690E00E944F0172
:1005200000E010E080EC0E94EF008EE790E00E9477
:100530004F0180918B0090918C000E945B0188E7B5
:1005400090E00E944F0187EA91E60197F1F700C021
:1005500000000F5F1F4F9ACF1F5F183209F088CF3E
:10056000FFCFC0989CCF8FEFE81AF80A9FE1E916F9
:10057000F10409F09ECF109287001092860097CF69
:1005800080E80E94EF008DE690E0C8CF992778E0E0
:10059000880F991F961708F0961B881F7A95C9F740
:1005A0008095089597FB072E16F4009407D077FDE9
:1005B00009D00E94E60207FC05D03EF49095819593
:1005C0009F4F0895709561957F4F0895AA1BBB1B9F
:1005D00051E107C0AA1FBB1FA617B70710F0A61B43
:1005E000B70B881F991F5A95A9F780959095BC0164
:0805F000CD010895F894FFCF3E
:1005F800543A004320483A0025202020004448541B
:10060800204572726F722020202020202000436F26
:06061800756E743A20002B
:00000001FF
