:100000000C942A000C9449000C9475000C94470041
:100010000C9447000C9447000C9447000C94470044
:100020000C9447000C9447000C9447000C94470034
:100030000C9447000C9447000C9447000C94470024
:100040000C9447000C9447000C9447000C94470014
:100050000C94470011241FBECFE5D8E0DEBFCDBF12
:1000600010E0A0E6B0E0EAEAF6E002C005900D92EA
:10007000A638B107D9F720E0A6E8B0E001C01D928C
:10008000AD38B207E1F70E9431020C9453030C948F
:1000900000001F921FB61F9211248F939F9380918F
:1000A0008600811109C081E0809387009F918F9124
:1000B0001F901FBE1F901895809186008115B1F387
:1000C00080918B0090918C00181619064CF4809149
:1000D0008B0090918C00019790938C0080938B0003
:1000E0001092870010928600E1CF1F921FB61F92D8
:1000F00011248F939F9380918700811109C081E023
:10010000809386009F918F911F901FBE1F9018951E
:10011000809187008115B1F380918B0090918C00C4
:10012000019690938C0080938B0010928700109220
:100130008600E8CF80E487B987E886B9089597B14B
:100140008F70907F892B87B9369A3699FECF84B10C
:1001500095B1089511B810B884E086BF089584EA77
:1001600086BF06B607FEFDCF81B1887F089583B9AB
:1001700084E886BF06B607FEFDCF81B1887F08956B
:1001800084E986BF83E08A95F1F700000895CF9354
:10019000C82F0E94AF008C2F880F0E94B700C82F75
:1001A0000E94C00081E0C83109F080E0CF9108953D
:1001B000CF93C82F0E94AF0080918800880F0E94C3
:1001C000B7008C2F0E94B700CF910C94C000CF9342
:1001D000C82F8C600E94D80000008C2F837F88601D
:1001E0000E94D80081E28A95F1F70000CF9108952E
:1001F0008295807F6111816088600C94E700CF93C5
:10020000C82F60E082958F700E94F80060E08C2F0C
:100210008F700E94F80083EF91E00197F1F700C022
:100220000000CF910895CF93C82F61E082958F7021
:100230000E94F80061E08C2F8F700E94F80080E12E
:100240008A95F1F700C0CF91089583ED90E301976F
:10025000F1F700C0000088E30E94E70081EE94E01F
:100260000197F1F700C0000088E30E94E70092E3E5
:100270009A95F1F788E30E94E70082E38A95F1F707
:1002800088E20E94E70092E39A95F1F788E20E94E3
:10029000FF008CE00E94FF0086E00E94FF0081E0EA
:1002A0000E94FF0083EF91E00197F1F700C000008A
:1002B00008958111605C862F80680C94FF00CF93B5
:1002C000DF93EC018991811103C0DF91CF910895F3
:1002D0000E941301F7CFEF92FF920F931F93CF93DA
:1002E000DF93CDB7DEB72A970FB6F894DEBF0FBE07
:1002F000CDBF0097F1F09E012F5F3F4F7901F901CB
:1003000000E010E02AE030E0181619060CF10E0D9E
:100310001F1D0E151F0529F52A960FB6F894DEBF8E
:100320000FBECDBFDF91CF911F910F91FF90EF9046
:10033000089580E32A960FB6F894DEBF0FBECDBFB6
:10034000DF91CF911F910F91FF90EF900C941301CB
:10035000B9010E942B030F5F1F4F805D8193CB017A
:10036000D3CFF80182918F010E941301D2CF8E9AD0
:10037000969887E893E10197F1F700C00000969AFC
:1003800008958E9885E690E086990AC085E690E00B
:10039000869B0BC085E690E086990BC081E00895AE
:1003A0000000019789F780E0089500000197D9F3D4
:1003B000EFCF00000197B9F3EFCF98E080E025E69A
:1003C00030E004C000002150304099F0869BFACF05
:1003D0002AE02A95F1F7880F8699816025E630E0BA
:1003E000869B04C0000021503040D1F79A9539F720
:1003F000089580E00895BF92CF92DF92EF92FF922E
:100400000F931F93CF93DF937C018B010E94B70161
:100410000E94C101D82F81110CC0D0E08D2FDF9137
:10042000CF911F910F91FF90EF90DF90CF90BF90F1
:1004300008950E94DD01C82E0E94DD01C82F0E9490
:10044000DD01D82E0E94DD01B82E0E94DD01CC0D09
:10045000CD0DCB0DC813E1CFF701C082F801D082DA
:10046000DDCF00D0CDB7DEB71A82198280E884BF15
:1004700084BFBB9A8F9A8AE683BF1CBE85BD13BC1E
:1004800085B78A6085BF85B78A7F85BF8BB7806C4B
:100490008BBF78940E94AA000E949A0010E2812FDC
:1004A0000E94C700811509F4AFC0109388000E9414
:1004B0002501E12CF12C00E010E0E5E0BE2EFAE091
:1004C000CF2ED12C80918B0090918C00181619069C
:1004D0000CF09FC080E00E949F00969587959695AE
:1004E000879580958CBF89814FEF813238F444EB3A
:1004F0008D3120F444E6893108F44CE38A812FEFF2
:10050000873420F426E9833308F42CE380918B00B0
:1005100090918C005FEF049744F480918B00909150
:100520008C0056E902970CF450E530E0C901880FC1
:10053000991F820F931FB49E800D911D1124850F6A
:10054000911D850F911DB6010E942B0363BD809103
:100550008700811161C08091860081115DC0E12C0E
:10056000F12C04311105B1F5BE016F5F7F4FCE0153
:1005700002960E94FB01811509F45BC080E80E948D
:10058000FF0080E690E00E945F0189816AE00E949E
:100590001F03192F805D0E94130180E3810F0E94C9
:1005A00013018FED0E94130183E690E00E945F012A
:1005B0008A816AE00E941F03192F805D0E94130147
:1005C00080E3810F0E94130188E690E00E945F01A2
:1005D00000E010E080EC0E94FF008EE790E00E94B7
:1005E0005F0180918B0090918C000E946B0188E7E5
:1005F00090E00E945F0187EA91E60197F1F700C061
:1006000000000F5F1F4F5ECF1F5F183209F047CF0A
:10061000FFCF1CBE13BC9BCF8FEFE81AF80A9FE1F7
:10062000E916F10409F09DCF109287001092860020
:1006300096CF80E80E94FF008DE690E0C7CF992713
:1006400078E0880F991F961708F0961B881F7A95F7
:10065000C9F78095089597FB072E16F4009407D0EC
:1006600077FD09D00E943F0307FC05D03EF490952A
:1006700081959F4F0895709561957F4F0895AA1BAE
:10068000BB1B51E107C0AA1FBB1FA617B70710F07D
:10069000A61BB70B881F991F5A95A9F780959095AF
:0A06A000BC01CD010895F894FFCFCE
:1006AA00543A004320483A00252020200044485468
:1006BA00204572726F722020202020202000436F74
:0606CA00756E743A200079
:00000001FF
