:100000000C942A000C9449000C9477000C9447003F
:100010000C9447000C9447000C9447000C94470044
:100020000C9447000C9447000C9447000C94470034
:100030000C9447000C9447000C9447000C94470024
:100040000C9447000C9447000C9447000C94470014
:100050000C94470011241FBECFE5D8E0DEBFCDBF12
:1000600010E0A0E6B0E0EEE6F7E002C005900D92E9
:10007000A83AB107D9F720E0A8EAB0E001C01D9284
:10008000A03BB207E1F70E9446020C94B5030C9422
:1000900000001F921FB61F9211248F939F9381E03F
:1000A0008093AB009091A800911108C08093A900A3
:1000B0009F918F911F901FBE1F9018958091A8004F
:1000C0008115B1F38091AE009091AF00181619061A
:1000D0004CF48091AE009091AF0001979093AF00E7
:1000E0008093AE001092A9001092A800E1CF1F9259
:1000F0001FB61F9211248F939F9381E08093AB00D2
:100100009091A900911108C08093A8009F918F91B0
:100110001F901FBE1F9018958091A9008115B1F303
:100120008091AE009091AF0001969093AF008093C4
:10013000AE001092A9001092A800E8CF80E487B921
:1001400087E886B9089597B18F70907F892B87B91A
:10015000369A3699FECF84B195B108958D9A82E88A
:100160008FBD83EC99E097BD86BD8DE790E09BBD88
:100170008ABD8AE18EBD08959BBD8ABD089511B8E0
:1001800010B884E086BF089584EA86BF06B607FEED
:10019000FDCF81B1887F089583B984E886BF06B614
:1001A00007FEFDCF81B1887F089584E986BF83E093
:1001B0008A95F1F700000895CF93C82F0E94C400DC
:1001C0008C2F880F0E94CC00C82F0E94D50081E0A0
:1001D000C83109F080E0CF910895CF93C82F0E94D5
:1001E000C4008091AA00880F0E94CC008C2F0E942E
:1001F000CC00CF910C94D500CF93C82F8C600E9477
:10020000ED0000008C2F837F88600E94ED0081E26A
:100210008A95F1F70000CF9108958295807F611152
:10022000816088600C94FC00CF93C82F60E08295B9
:100230008F700E940D0160E08C2F8F700E940D0165
:1002400083EF91E00197F1F700C00000CF9108958E
:10025000CF93C82F61E082958F700E940D0161E0FD
:100260008C2F8F700E940D0180E18A95F1F700C0FC
:10027000CF91089583ED90E30197F1F700C000005E
:1002800088E30E94FC0081EE94E00197F1F700C042
:10029000000088E30E94FC0092E39A95F1F788E35E
:1002A0000E94FC0082E38A95F1F788E20E94FC003C
:1002B00092E39A95F1F788E20E9414018CE00E9483
:1002C000140186E00E94140181E00E94140183EF72
:1002D00091E00197F1F700C0000008958111605C82
:1002E000862F80680C941401CF93DF93EC018991E1
:1002F000811103C0DF91CF9108950E942801F7CFAB
:10030000EF92FF920F931F93CF93DF93CDB7DEB79A
:100310002A970FB6F894DEBF0FBECDBF0097F1F05D
:100320009E012F5F3F4F7901F90100E010E02AE0C4
:1003300030E0181619060CF10E0D1F1D0E151F05C5
:1003400029F52A960FB6F894DEBF0FBECDBFDF9118
:10035000CF911F910F91FF90EF90089580E32A961F
:100360000FB6F894DEBF0FBECDBFDF91CF911F91C6
:100370000F91FF90EF900C942801B9010E948D031A
:100380000F5F1F4F805D8193CB01D3CFF801829126
:100390008F010E942801D2CF8E9A969887E893E128
:1003A0000197F1F700C00000969A08958E9885E6AF
:1003B00090E086990AC085E690E0869B0BC085E6B2
:1003C00090E086990BC081E008950000019789F7BD
:1003D00080E0089500000197D9F3EFCF0000019766
:1003E000B9F3EFCF98E080E025E630E004C00000EC
:1003F0002150304099F0869BFACF2AE02A95F1F7F8
:10040000880F8699816025E630E0869B04C0000055
:1004100021503040D1F79A9539F7089580E008953A
:10042000BF92CF92DF92EF92FF920F931F93CF93E1
:10043000DF937C018B010E94CC010E94D601D82F52
:1004400081110CC0D0E08D2FDF91CF911F910F91C2
:10045000FF90EF90DF90CF90BF9008950E94F2013F
:10046000C82E0E94F201C82F0E94F201D82E0E94CD
:10047000F201B82E0E94F201CC0DCD0DCB0DC813A8
:10048000E1CFF701C082F801D082DDCF00D00F921A
:10049000CDB7DEB71A82198280E884BF84BFBB9AC9
:1004A0008F9A8C98949AB89AC0988AE683BF1CBE9B
:1004B00085BD13BC0E94AE0085B78A6085BF85B735
:1004C0008A7F85BF8BB7806C8BBF78940E94BF00FA
:1004D0000E949E0010E2812F0E94DC00382E8115C0
:1004E00009F4D8C01093AA000E943A01212C00E020
:1004F00010E0C12CD12CE12CF12CEAE04E2E512C35
:10050000FDE76F2E712CA0EF8A2E912C8091AE000A
:100510009091AF00181619060CF0C1C080E00E943F
:10052000A300969587959695879580958CBF898130
:100530004FEF813238F444EB8D3120F444E68931B9
:1005400008F44CE38A812FEF873420F426E98333C3
:1005500008F42CE38091AE009091AF005FEF049718
:1005600044F48091AE009091AF0056E902970CF4EC
:1005700050E530E0C901880F991F820F931F25E0D5
:10058000249F800D911D1124850F911D850F911DB4
:10059000B2010E948D0363BD8091A900811182C0C8
:1005A0008091A80081117EC0C12CD12C8091AB001C
:1005B000811509F484C09BBC8ABC1092AB00232C2B
:1005C00000E010E081E00E94A3005C0180B3282FCE
:1005D00020712B8384FF06C081E9A81681E0B8064C
:1005E00008F47AC0C09A94E1E916F104C1F5BE019D
:1005F0006F5F7F4FCE0102960E941002811509F4B1
:100600006DC080E80E94140180E690E00E947401B1
:1006100089819AE0F92E6F2D0E948103E92E805D79
:100620000E94280180E38E0D0E9428018FED0E9418
:10063000280183E690E00E9474018A816F2D0E9458
:100640008103F92E805D0E94280180E38F0D0E94B6
:10065000280188E690E00E947401E12CF12C80ECE6
:100660000E9414012B818EE790E0211539F081E979
:10067000A81681E0B806C0F18FE890E00E947401EE
:1006800087EA91E60197F1F700C000009FEFE91AB1
:10069000F90A3CCF1F5F183209F01DCFFFCF1CBEF7
:1006A00013BC7ACF8FEFC81AD80A9FE1C916D104BC
:1006B00009F07CCF1092A9001092A80075CF2114E8
:1006C00009F480CF0F5F1F4F0333110508F47ACF71
:1006D0007BBC6ABC212C74CFC09885CF80E80E9477
:1006E00014018DE690E0B7CF80EA90E00E9474019B
:1006F0008091AE009091AF000E94800188E790E069
:10070000BDCF992778E0880F991F961708F0961BA0
:10071000881F7A95C9F78095089597FB072E16F4E0
:10072000009407D077FD09D00E94A10307FC05D0F3
:100730003EF4909581959F4F0895709561957F4FF8
:100740000895AA1BBB1B51E107C0AA1FBB1FA61718
:10075000B70710F0A61BB70B881F991F5A95A9F76A
:0E07600080959095BC01CD010895F894FFCFCF
:10076E00543A004320483A002520202000444854A3
:10077E00204572726F72202020202020200021211F
:10078E00204649524520414C4552542021210021FA
:10079E002120474153204C45414B20212120200050
:0807AE00436F756E743A2000E0
:00000001FF
