:100000000C942A000C9449000C9477000C9447003F
:100010000C9447000C9447000C9447000C94470044
:100020000C9447000C9447000C9447000C94470034
:100030000C9447000C9447000C9447000C94470024
:100040000C9447000C9447000C9447000C94470014
:100050000C94470011241FBECFE5D8E0DEBFCDBF12
:1000600010E0A0E6B0E0E6E2F7E002C005900D92F5
:10007000A638B107D9F720E0A6E8B0E001C01D928C
:10008000AE38B207E1F70E9446020C9491030C943B
:1000900000001F921FB61F9211248F939F9381E03F
:1000A0008093890090918600911108C08093870009
:1000B0009F918F911F901FBE1F9018958091860071
:1000C0008115B1F380918C0090918D00181619065E
:1000D0004CF480918C0090918D00019790938D004D
:1000E00080938C001092870010928600E1CF1F92BF
:1000F0001FB61F9211248F939F9381E080938900F4
:1001000090918700911108C0809386009F918F91F4
:100110001F901FBE1F901895809187008115B1F325
:1001200080918C0090918D00019690938D0080932A
:100130008C001092870010928600E8CF80E487B987
:1001400087E886B9089597B18F70907F892B87B91A
:10015000369A3699FECF84B195B108958D9A82E88A
:100160008FBD83EC99E097BD86BD8DE790E09BBD88
:100170008ABD8AE18EBD08959BBD8ABD089511B8E0
:1001800010B884E086BF089584EA86BF06B607FEED
:10019000FDCF81B1887F089583B984E886BF06B614
:1001A00007FEFDCF81B1887F089584E986BF83E093
:1001B0008A95F1F700000895CF93C82F0E94C400DC
:1001C0008C2F880F0E94CC00C82F0E94D50081E0A0
:1001D000C83109F080E0CF910895CF93C82F0E94D5
:1001E000C40080918800880F0E94CC008C2F0E9450
:1001F000CC00CF910C94D500CF93C82F8C600E9477
:10020000ED0000008C2F837F88600E94ED0081E26A
:100210008A95F1F70000CF9108958295807F611152
:10022000816088600C94FC00CF93C82F60E08295B9
:100230008F700E940D0160E08C2F8F700E940D0165
:1002400083EF91E00197F1F700C00000CF9108958E
:10025000CF93C82F61E082958F700E940D0161E0FD
:100260008C2F8F700E940D0180E18A95F1F700C0FC
:10027000CF91089583ED90E30197F1F700C000005E
:1002800088E30E94FC0081EE94E00197F1F700C042
:10029000000088E30E94FC0092E39A95F1F788E35E
:1002A0000E94FC0082E38A95F1F788E20E94FC003C
:1002B00092E39A95F1F788E20E9414018CE00E9483
:1002C000140186E00E94140181E00E94140183EF72
:1002D00091E00197F1F700C0000008958111605C82
:1002E000862F80680C941401CF93DF93EC018991E1
:1002F000811103C0DF91CF9108950E942801F7CFAB
:10030000EF92FF920F931F93CF93DF93CDB7DEB79A
:100310002A970FB6F894DEBF0FBECDBF0097F1F05D
:100320009E012F5F3F4F7901F90100E010E02AE0C4
:1003300030E0181619060CF10E0D1F1D0E151F05C5
:1003400029F52A960FB6F894DEBF0FBECDBFDF9118
:10035000CF911F910F91FF90EF90089580E32A961F
:100360000FB6F894DEBF0FBECDBFDF91CF911F91C6
:100370000F91FF90EF900C942801B9010E9469033E
:100380000F5F1F4F805D8193CB01D3CFF801829126
:100390008F010E942801D2CF8E9A969887E893E128
:1003A0000197F1F700C00000969A08958E9885E6AF
:1003B00090E086990AC085E690E0869B0BC085E6B2
:1003C00090E086990BC081E008950000019789F7BD
:1003D00080E0089500000197D9F3EFCF0000019766
:1003E000B9F3EFCF98E080E025E630E004C00000EC
:1003F0002150304099F0869BFACF2AE02A95F1F7F8
:10040000880F8699816025E630E0869B04C0000055
:1004100021503040D1F79A9539F7089580E008953A
:10042000BF92CF92DF92EF92FF920F931F93CF93E1
:10043000DF937C018B010E94CC010E94D601D82F52
:1004400081110CC0D0E08D2FDF91CF911F910F91C2
:10045000FF90EF90DF90CF90BF9008950E94F2013F
:10046000C82E0E94F201C82F0E94F201D82E0E94CD
:10047000F201B82E0E94F201CC0DCD0DCB0DC813A8
:10048000E1CFF701C082F801D082DDCF00D0CDB737
:10049000DEB71A82198280E884BF84BFBB9A8F9A24
:1004A0008AE683BF1CBE85BD13BC0E94AE0085B723
:1004B0008A6085BF85B78A7F85BF8BB7806C8BBF0D
:1004C00078940E94BF000E949E0010E2812F0E943B
:1004D000DC00582E811509F4C8C0109388000E94D2
:1004E0003A01412C00E010E0C12CD12CE12CF12C80
:1004F000E5E03E2EFAE06F2E712CADE7AA2EB12C6E
:10050000B0EF8B2E912C80918C0090918D0018165D
:1005100019060CF0AFC080E00E94A3009695879565
:100520009695879580958CBF89814FEF813238F4FD
:1005300044EB8D3120F444E6893108F44CE38A81A0
:100540002FEF873420F426E9833308F42CE38091DD
:100550008C0090918D005FEF049744F480918C00A3
:1005600090918D0056E902970CF450E530E0C901F6
:10057000880F991F820F931F349E800D911D1124A7
:10058000850F911D850F911DB3010E94690363BD05
:1005900080918700811171C08091860081116DC0AA
:1005A000C12CD12C80918900811509F473C09BBCAA
:1005B0008ABC10928900452C00E010E084E1E81626
:1005C000F104C1F5BE016F5F7F4FCE0102960E941C
:1005D0001002811509F46BC080E80E94140180E6C6
:1005E00090E00E94740189819AE0F92E6F2D0E949B
:1005F0005D03E92E805D0E94280180E38E0D0E943C
:1006000028018FED0E94280183E690E00E9474018A
:100610008A816F2D0E945D03F92E805D0E94280162
:1006200080E38F0D0E94280188E690E00E9474010B
:10063000E12CF12C80EC0E9414018EE790E00E94E6
:10064000740180918C0090918D000E94800188E758
:1006500090E00E94740187EA91E60197F1F700C0EB
:1006600000009FEFE91AF90A4ECF1F5F183209F018
:100670002DCFFFCF1CBE13BC8BCF8FEFC81AD80A6B
:100680009FE1C916D10409F08DCF10928700109216
:10069000860086CF411409F491CF0F5F1F4F0333BB
:1006A000110508F48BCFBBBCAABC412C85CF80E8D8
:1006B0000E9414018DE690E0B9CF992778E0880F69
:1006C000991F961708F0961B881F7A95C9F7809591
:1006D000089597FB072E16F4009407D077FD09D0F4
:1006E0000E947D0307FC05D03EF4909581959F4FB5
:1006F0000895709561957F4F0895AA1BBB1B51E12A
:1007000007C0AA1FBB1FA617B70710F0A61BB70B81
:10071000881F991F5A95A9F780959095BC01CD0126
:060720000895F894FFCFDC
:10072600543A004320483A002520202000444854EB
:10073600204572726F722020202020202000436FF7
:06074600756E743A2000FC
:00000001FF
